{
  "_format": "hh-sol-artifact-1",
  "contractName": "BaseCreatorRewards",
  "sourceName": "contracts/RewardToken.sol",
  "abi": [
    {
      "inputs": [],
      "stateMutability": "nonpayable",
      "type": "constructor"
    },
    {
      "anonymous": false,
      "inputs": [
        {
          "indexed": true,
          "internalType": "address",
          "name": "account",
          "type": "address"
        },
        {
          "indexed": true,
          "internalType": "address",
          "name": "operator",
          "type": "address"
        },
        {
          "indexed": false,
          "internalType": "bool",
          "name": "approved",
          "type": "bool"
        }
      ],
      "name": "ApprovalForAll",
      "type": "event"
    },
    {
      "anonymous": false,
      "inputs": [
        {
          "indexed": true,
          "internalType": "address",
          "name": "previousOwner",
          "type": "address"
        },
        {
          "indexed": true,
          "internalType": "address",
          "name": "newOwner",
          "type": "address"
        }
      ],
      "name": "OwnershipTransferred",
      "type": "event"
    },
    {
      "anonymous": false,
      "inputs": [
        {
          "indexed": false,
          "internalType": "address",
          "name": "account",
          "type": "address"
        }
      ],
      "name": "Paused",
      "type": "event"
    },
    {
      "anonymous": false,
      "inputs": [
        {
          "indexed": true,
          "internalType": "bytes32",
          "name": "role",
          "type": "bytes32"
        },
        {
          "indexed": true,
          "internalType": "bytes32",
          "name": "previousAdminRole",
          "type": "bytes32"
        },
        {
          "indexed": true,
          "internalType": "bytes32",
          "name": "newAdminRole",
          "type": "bytes32"
        }
      ],
      "name": "RoleAdminChanged",
      "type": "event"
    },
    {
      "anonymous": false,
      "inputs": [
        {
          "indexed": true,
          "internalType": "bytes32",
          "name": "role",
          "type": "bytes32"
        },
        {
          "indexed": true,
          "internalType": "address",
          "name": "account",
          "type": "address"
        },
        {
          "indexed": true,
          "internalType": "address",
          "name": "sender",
          "type": "address"
        }
      ],
      "name": "RoleGranted",
      "type": "event"
    },
    {
      "anonymous": false,
      "inputs": [
        {
          "indexed": true,
          "internalType": "bytes32",
          "name": "role",
          "type": "bytes32"
        },
        {
          "indexed": true,
          "internalType": "address",
          "name": "account",
          "type": "address"
        },
        {
          "indexed": true,
          "internalType": "address",
          "name": "sender",
          "type": "address"
        }
      ],
      "name": "RoleRevoked",
      "type": "event"
    },
    {
      "anonymous": false,
      "inputs": [
        {
          "indexed": true,
          "internalType": "address",
          "name": "operator",
          "type": "address"
        },
        {
          "indexed": true,
          "internalType": "address",
          "name": "from",
          "type": "address"
        },
        {
          "indexed": true,
          "internalType": "address",
          "name": "to",
          "type": "address"
        },
        {
          "indexed": false,
          "internalType": "uint256[]",
          "name": "ids",
          "type": "uint256[]"
        },
        {
          "indexed": false,
          "internalType": "uint256[]",
          "name": "values",
          "type": "uint256[]"
        }
      ],
      "name": "TransferBatch",
      "type": "event"
    },
    {
      "anonymous": false,
      "inputs": [
        {
          "indexed": true,
          "internalType": "address",
          "name": "operator",
          "type": "address"
        },
        {
          "indexed": true,
          "internalType": "address",
          "name": "from",
          "type": "address"
        },
        {
          "indexed": true,
          "internalType": "address",
          "name": "to",
          "type": "address"
        },
        {
          "indexed": false,
          "internalType": "uint256",
          "name": "id",
          "type": "uint256"
        },
        {
          "indexed": false,
          "internalType": "uint256",
          "name": "value",
          "type": "uint256"
        }
      ],
      "name": "TransferSingle",
      "type": "event"
    },
    {
      "anonymous": false,
      "inputs": [
        {
          "indexed": false,
          "internalType": "string",
          "name": "value",
          "type": "string"
        },
        {
          "indexed": true,
          "internalType": "uint256",
          "name": "id",
          "type": "uint256"
        }
      ],
      "name": "URI",
      "type": "event"
    },
    {
      "anonymous": false,
      "inputs": [
        {
          "indexed": false,
          "internalType": "address",
          "name": "account",
          "type": "address"
        }
      ],
      "name": "Unpaused",
      "type": "event"
    },
    {
      "inputs": [],
      "name": "DEFAULT_ADMIN_ROLE",
      "outputs": [
        {
          "internalType": "bytes32",
          "name": "",
          "type": "bytes32"
        }
      ],
      "stateMutability": "view",
      "type": "function"
    },
    {
      "inputs": [],
      "name": "MINTER_ROLE",
      "outputs": [
        {
          "internalType": "bytes32",
          "name": "",
          "type": "bytes32"
        }
      ],
      "stateMutability": "view",
      "type": "function"
    },
    {
      "inputs": [],
      "name": "PAUSER_ROLE",
      "outputs": [
        {
          "internalType": "bytes32",
          "name": "",
          "type": "bytes32"
        }
      ],
      "stateMutability": "view",
      "type": "function"
    },
    {
      "inputs": [
        {
          "internalType": "address",
          "name": "account",
          "type": "address"
        },
        {
          "internalType": "uint256",
          "name": "id",
          "type": "uint256"
        }
      ],
      "name": "balanceOf",
      "outputs": [
        {
          "internalType": "uint256",
          "name": "",
          "type": "uint256"
        }
      ],
      "stateMutability": "view",
      "type": "function"
    },
    {
      "inputs": [
        {
          "internalType": "address[]",
          "name": "accounts",
          "type": "address[]"
        },
        {
          "internalType": "uint256[]",
          "name": "ids",
          "type": "uint256[]"
        }
      ],
      "name": "balanceOfBatch",
      "outputs": [
        {
          "internalType": "uint256[]",
          "name": "",
          "type": "uint256[]"
        }
      ],
      "stateMutability": "view",
      "type": "function"
    },
    {
      "inputs": [
        {
          "internalType": "address",
          "name": "account",
          "type": "address"
        },
        {
          "internalType": "uint256",
          "name": "id",
          "type": "uint256"
        },
        {
          "internalType": "uint256",
          "name": "value",
          "type": "uint256"
        }
      ],
      "name": "burn",
      "outputs": [],
      "stateMutability": "nonpayable",
      "type": "function"
    },
    {
      "inputs": [
        {
          "internalType": "address",
          "name": "account",
          "type": "address"
        },
        {
          "internalType": "uint256[]",
          "name": "ids",
          "type": "uint256[]"
        },
        {
          "internalType": "uint256[]",
          "name": "values",
          "type": "uint256[]"
        }
      ],
      "name": "burnBatch",
      "outputs": [],
      "stateMutability": "nonpayable",
      "type": "function"
    },
    {
      "inputs": [
        {
          "internalType": "address",
          "name": "user",
          "type": "address"
        },
        {
          "internalType": "uint256",
          "name": "initialSupply",
          "type": "uint256"
        }
      ],
      "name": "createItem",
      "outputs": [],
      "stateMutability": "nonpayable",
      "type": "function"
    },
    {
      "inputs": [
        {
          "internalType": "bytes32",
          "name": "role",
          "type": "bytes32"
        }
      ],
      "name": "getRoleAdmin",
      "outputs": [
        {
          "internalType": "bytes32",
          "name": "",
          "type": "bytes32"
        }
      ],
      "stateMutability": "view",
      "type": "function"
    },
    {
      "inputs": [
        {
          "internalType": "bytes32",
          "name": "role",
          "type": "bytes32"
        },
        {
          "internalType": "uint256",
          "name": "index",
          "type": "uint256"
        }
      ],
      "name": "getRoleMember",
      "outputs": [
        {
          "internalType": "address",
          "name": "",
          "type": "address"
        }
      ],
      "stateMutability": "view",
      "type": "function"
    },
    {
      "inputs": [
        {
          "internalType": "bytes32",
          "name": "role",
          "type": "bytes32"
        }
      ],
      "name": "getRoleMemberCount",
      "outputs": [
        {
          "internalType": "uint256",
          "name": "",
          "type": "uint256"
        }
      ],
      "stateMutability": "view",
      "type": "function"
    },
    {
      "inputs": [
        {
          "internalType": "bytes32",
          "name": "role",
          "type": "bytes32"
        },
        {
          "internalType": "address",
          "name": "account",
          "type": "address"
        }
      ],
      "name": "grantRole",
      "outputs": [],
      "stateMutability": "nonpayable",
      "type": "function"
    },
    {
      "inputs": [
        {
          "internalType": "bytes32",
          "name": "role",
          "type": "bytes32"
        },
        {
          "internalType": "address",
          "name": "account",
          "type": "address"
        }
      ],
      "name": "hasRole",
      "outputs": [
        {
          "internalType": "bool",
          "name": "",
          "type": "bool"
        }
      ],
      "stateMutability": "view",
      "type": "function"
    },
    {
      "inputs": [
        {
          "internalType": "address",
          "name": "account",
          "type": "address"
        },
        {
          "internalType": "address",
          "name": "operator",
          "type": "address"
        }
      ],
      "name": "isApprovedForAll",
      "outputs": [
        {
          "internalType": "bool",
          "name": "",
          "type": "bool"
        }
      ],
      "stateMutability": "view",
      "type": "function"
    },
    {
      "inputs": [
        {
          "internalType": "address",
          "name": "to",
          "type": "address"
        },
        {
          "internalType": "uint256",
          "name": "id",
          "type": "uint256"
        },
        {
          "internalType": "uint256",
          "name": "amount",
          "type": "uint256"
        },
        {
          "internalType": "bytes",
          "name": "data",
          "type": "bytes"
        }
      ],
      "name": "mint",
      "outputs": [],
      "stateMutability": "nonpayable",
      "type": "function"
    },
    {
      "inputs": [
        {
          "internalType": "address",
          "name": "to",
          "type": "address"
        },
        {
          "internalType": "uint256[]",
          "name": "ids",
          "type": "uint256[]"
        },
        {
          "internalType": "uint256[]",
          "name": "amounts",
          "type": "uint256[]"
        },
        {
          "internalType": "bytes",
          "name": "data",
          "type": "bytes"
        }
      ],
      "name": "mintBatch",
      "outputs": [],
      "stateMutability": "nonpayable",
      "type": "function"
    },
    {
      "inputs": [
        {
          "internalType": "address",
          "name": "to",
          "type": "address"
        },
        {
          "internalType": "uint256[]",
          "name": "ids",
          "type": "uint256[]"
        },
        {
          "internalType": "uint256[]",
          "name": "amounts",
          "type": "uint256[]"
        },
        {
          "internalType": "bytes",
          "name": "data",
          "type": "bytes"
        }
      ],
      "name": "mintBatchItems",
      "outputs": [],
      "stateMutability": "nonpayable",
      "type": "function"
    },
    {
      "inputs": [],
      "name": "owner",
      "outputs": [
        {
          "internalType": "address",
          "name": "",
          "type": "address"
        }
      ],
      "stateMutability": "view",
      "type": "function"
    },
    {
      "inputs": [],
      "name": "pause",
      "outputs": [],
      "stateMutability": "nonpayable",
      "type": "function"
    },
    {
      "inputs": [],
      "name": "paused",
      "outputs": [
        {
          "internalType": "bool",
          "name": "",
          "type": "bool"
        }
      ],
      "stateMutability": "view",
      "type": "function"
    },
    {
      "inputs": [],
      "name": "renounceOwnership",
      "outputs": [],
      "stateMutability": "nonpayable",
      "type": "function"
    },
    {
      "inputs": [
        {
          "internalType": "bytes32",
          "name": "role",
          "type": "bytes32"
        },
        {
          "internalType": "address",
          "name": "account",
          "type": "address"
        }
      ],
      "name": "renounceRole",
      "outputs": [],
      "stateMutability": "nonpayable",
      "type": "function"
    },
    {
      "inputs": [
        {
          "internalType": "bytes32",
          "name": "role",
          "type": "bytes32"
        },
        {
          "internalType": "address",
          "name": "account",
          "type": "address"
        }
      ],
      "name": "revokeRole",
      "outputs": [],
      "stateMutability": "nonpayable",
      "type": "function"
    },
    {
      "inputs": [
        {
          "internalType": "address",
          "name": "from",
          "type": "address"
        },
        {
          "internalType": "address",
          "name": "to",
          "type": "address"
        },
        {
          "internalType": "uint256[]",
          "name": "ids",
          "type": "uint256[]"
        },
        {
          "internalType": "uint256[]",
          "name": "amounts",
          "type": "uint256[]"
        },
        {
          "internalType": "bytes",
          "name": "data",
          "type": "bytes"
        }
      ],
      "name": "safeBatchTransferFrom",
      "outputs": [],
      "stateMutability": "nonpayable",
      "type": "function"
    },
    {
      "inputs": [
        {
          "internalType": "address",
          "name": "from",
          "type": "address"
        },
        {
          "internalType": "address",
          "name": "to",
          "type": "address"
        },
        {
          "internalType": "uint256",
          "name": "id",
          "type": "uint256"
        },
        {
          "internalType": "uint256",
          "name": "amount",
          "type": "uint256"
        },
        {
          "internalType": "bytes",
          "name": "data",
          "type": "bytes"
        }
      ],
      "name": "safeTransferFrom",
      "outputs": [],
      "stateMutability": "nonpayable",
      "type": "function"
    },
    {
      "inputs": [
        {
          "internalType": "address",
          "name": "operator",
          "type": "address"
        },
        {
          "internalType": "bool",
          "name": "approved",
          "type": "bool"
        }
      ],
      "name": "setApprovalForAll",
      "outputs": [],
      "stateMutability": "nonpayable",
      "type": "function"
    },
    {
      "inputs": [
        {
          "internalType": "bytes4",
          "name": "interfaceId",
          "type": "bytes4"
        }
      ],
      "name": "supportsInterface",
      "outputs": [
        {
          "internalType": "bool",
          "name": "",
          "type": "bool"
        }
      ],
      "stateMutability": "view",
      "type": "function"
    },
    {
      "inputs": [
        {
          "internalType": "address",
          "name": "newOwner",
          "type": "address"
        }
      ],
      "name": "transferOwnership",
      "outputs": [],
      "stateMutability": "nonpayable",
      "type": "function"
    },
    {
      "inputs": [],
      "name": "unpause",
      "outputs": [],
      "stateMutability": "nonpayable",
      "type": "function"
    },
    {
      "inputs": [
        {
          "internalType": "uint256",
          "name": "",
          "type": "uint256"
        }
      ],
      "name": "uri",
      "outputs": [
        {
          "internalType": "string",
          "name": "",
          "type": "string"
        }
      ],
      "stateMutability": "view",
      "type": "function"
    }
  ],
  "bytecode": "0x60806040523480156200001157600080fd5b506040518060600160405280602a815260200162003611602a9139806200003f6301ffc9a760e01b62000156565b6200004a81620001de565b6200005c636cdb3d1360e11b62000156565b6200006e6303a24d0760e21b62000156565b506005805460ff191690556200008f600062000089620001f7565b620001fb565b620000be7f9f2df0fed2c77648de5860a4cc508cd0818c85b8b8a1ab4ceeef8d981c8956a662000089620001f7565b620000ed7f65d7a28e3265b37a6474929f336521b332c1681b933f6cb9f3376673440d862a62000089620001f7565b506000620000fa620001f7565b60058054610100600160a81b0319166101006001600160a01b03841690810291909117909155604051919250906000907f8be0079c531659141344cd1fd0a4f28419497f9722a3daafe3b4186f6b6457e0908290a3506200039d565b6001600160e01b03198082161415620001b6576040805162461bcd60e51b815260206004820152601c60248201527f4552433136353a20696e76616c696420696e7465726661636520696400000000604482015290519081900360640190fd5b6001600160e01b0319166000908152600160208190526040909120805460ff19169091179055565b8051620001f390600490602084019062000301565b5050565b3390565b620001f382826000828152602081815260409091206200022691839062001d586200027a821b17901c565b15620001f35762000236620001f7565b6001600160a01b0316816001600160a01b0316837f2f8788117e7eff1d82e926ec794901d17c78024a50270940304540a733656f0d60405160405180910390a45050565b600062000291836001600160a01b0384166200029a565b90505b92915050565b6000620002a88383620002e9565b620002e05750815460018181018455600084815260208082209093018490558454848252828601909352604090209190915562000294565b50600062000294565b60009081526001919091016020526040902054151590565b828054600181600116156101000203166002900490600052602060002090601f016020900481019282601f106200034457805160ff191683800117855562000374565b8280016001018555821562000374579182015b828111156200037457825182559160200191906001019062000357565b506200038292915062000386565b5090565b5b8082111562000382576000815560010162000387565b61326480620003ad6000396000f3fe608060405234801561001057600080fd5b50600436106101d95760003560e01c806382750d5311610104578063ca15c873116100a2578063e985e9c511610071578063e985e9c514610d45578063f242432a14610d73578063f2fde38b14610e3c578063f5298aca14610e62576101d9565b8063ca15c87314610cec578063d539139314610d09578063d547741f14610d11578063e63ab1e914610d3d576101d9565b80639010d07c116100de5780639010d07c14610c6757806391d1485414610c8a578063a217fddf14610cb6578063a22cb46514610cbe576101d9565b806382750d5314610c0f5780638456cb5914610c3b5780638da5cb5b14610c43576101d9565b806336568abe1161017c5780636b20c4541161014b5780636b20c4541461085c578063715018a61461098f578063731133e9146109975780637376b1aa14610a57576101d9565b806336568abe146106ad5780633f4ba83a146106d95780634e1273f4146106e15780635c975abb14610854576101d9565b80631f7fdffa116101b85780631f7fdffa146102e9578063248a9ca3146104a35780632eb2c2d6146104c05780632f2ff15d14610681576101d9565b8062fdd58e146101de57806301ffc9a71461021c5780630e89341c14610257575b600080fd5b61020a600480360360408110156101f457600080fd5b506001600160a01b038135169060200135610e94565b60408051918252519081900360200190f35b6102436004803603602081101561023257600080fd5b50356001600160e01b031916610f06565b604080519115158252519081900360200190f35b6102746004803603602081101561026d57600080fd5b5035610f25565b6040805160208082528351818301528351919283929083019185019080838360005b838110156102ae578181015183820152602001610296565b50505050905090810190601f1680156102db5780820380516001836020036101000a031916815260200191505b509250505060405180910390f35b6104a1600480360360808110156102ff57600080fd5b6001600160a01b038235169190810190604081016020820135600160201b81111561032957600080fd5b82018360208201111561033b57600080fd5b803590602001918460208302840111600160201b8311171561035c57600080fd5b9190808060200260200160405190810160405280939291908181526020018383602002808284376000920191909152509295949360208101935035915050600160201b8111156103ab57600080fd5b8201836020820111156103bd57600080fd5b803590602001918460208302840111600160201b831117156103de57600080fd5b9190808060200260200160405190810160405280939291908181526020018383602002808284376000920191909152509295949360208101935035915050600160201b81111561042d57600080fd5b82018360208201111561043f57600080fd5b803590602001918460018302840111600160201b8311171561046057600080fd5b91908080601f016020809104026020016040519081016040528093929190818152602001838380828437600092019190915250929550610fbd945050505050565b005b61020a600480360360208110156104b957600080fd5b503561103b565b6104a1600480360360a08110156104d657600080fd5b6001600160a01b038235811692602081013590911691810190606081016040820135600160201b81111561050957600080fd5b82018360208201111561051b57600080fd5b803590602001918460208302840111600160201b8311171561053c57600080fd5b9190808060200260200160405190810160405280939291908181526020018383602002808284376000920191909152509295949360208101935035915050600160201b81111561058b57600080fd5b82018360208201111561059d57600080fd5b803590602001918460208302840111600160201b831117156105be57600080fd5b9190808060200260200160405190810160405280939291908181526020018383602002808284376000920191909152509295949360208101935035915050600160201b81111561060d57600080fd5b82018360208201111561061f57600080fd5b803590602001918460018302840111600160201b8311171561064057600080fd5b91908080601f016020809104026020016040519081016040528093929190818152602001838380828437600092019190915250929550611050945050505050565b6104a16004803603604081101561069757600080fd5b50803590602001356001600160a01b0316611353565b6104a1600480360360408110156106c357600080fd5b50803590602001356001600160a01b03166113ba565b6104a161141b565b610804600480360360408110156106f757600080fd5b810190602081018135600160201b81111561071157600080fd5b82018360208201111561072357600080fd5b803590602001918460208302840111600160201b8311171561074457600080fd5b9190808060200260200160405190810160405280939291908181526020018383602002808284376000920191909152509295949360208101935035915050600160201b81111561079357600080fd5b8201836020820111156107a557600080fd5b803590602001918460208302840111600160201b831117156107c657600080fd5b91908080602002602001604051908101604052809392919081815260200183836020028082843760009201919091525092955061148c945050505050565b60408051602080825283518183015283519192839290830191858101910280838360005b83811015610840578181015183820152602001610828565b505050509050019250505060405180910390f35b610243611578565b6104a16004803603606081101561087257600080fd5b6001600160a01b038235169190810190604081016020820135600160201b81111561089c57600080fd5b8201836020820111156108ae57600080fd5b803590602001918460208302840111600160201b831117156108cf57600080fd5b9190808060200260200160405190810160405280939291908181526020018383602002808284376000920191909152509295949360208101935035915050600160201b81111561091e57600080fd5b82018360208201111561093057600080fd5b803590602001918460208302840111600160201b8311171561095157600080fd5b919080806020026020016040519081016040528093929190818152602001838360200280828437600092019190915250929550611582945050505050565b6104a16115fb565b6104a1600480360360808110156109ad57600080fd5b6001600160a01b038235169160208101359160408201359190810190608081016060820135600160201b8111156109e357600080fd5b8201836020820111156109f557600080fd5b803590602001918460018302840111600160201b83111715610a1657600080fd5b91908080601f0160208091040260200160405190810160405280939291908181526020018383808284376000920191909152509295506116bf945050505050565b6104a160048036036080811015610a6d57600080fd5b6001600160a01b038235169190810190604081016020820135600160201b811115610a9757600080fd5b820183602082011115610aa957600080fd5b803590602001918460208302840111600160201b83111715610aca57600080fd5b9190808060200260200160405190810160405280939291908181526020018383602002808284376000920191909152509295949360208101935035915050600160201b811115610b1957600080fd5b820183602082011115610b2b57600080fd5b803590602001918460208302840111600160201b83111715610b4c57600080fd5b9190808060200260200160405190810160405280939291908181526020018383602002808284376000920191909152509295949360208101935035915050600160201b811115610b9b57600080fd5b820183602082011115610bad57600080fd5b803590602001918460018302840111600160201b83111715610bce57600080fd5b91908080601f016020809104026020016040519081016040528093929190818152602001838380828437600092019190915250929550611029945050505050565b6104a160048036036040811015610c2557600080fd5b506001600160a01b038135169060200135611732565b6104a1611765565b610c4b6117d4565b604080516001600160a01b039092168252519081900360200190f35b610c4b60048036036040811015610c7d57600080fd5b50803590602001356117e8565b61024360048036036040811015610ca057600080fd5b50803590602001356001600160a01b0316611807565b61020a61181f565b6104a160048036036040811015610cd457600080fd5b506001600160a01b0381351690602001351515611824565b61020a60048036036020811015610d0257600080fd5b5035611913565b61020a61192a565b6104a160048036036040811015610d2757600080fd5b50803590602001356001600160a01b031661194e565b61020a6119a7565b61024360048036036040811015610d5b57600080fd5b506001600160a01b03813581169160200135166119cb565b6104a1600480360360a0811015610d8957600080fd5b6001600160a01b03823581169260208101359091169160408201359160608101359181019060a081016080820135600160201b811115610dc857600080fd5b820183602082011115610dda57600080fd5b803590602001918460018302840111600160201b83111715610dfb57600080fd5b91908080601f0160208091040260200160405190810160405280939291908181526020018383808284376000920191909152509295506119f9945050505050565b6104a160048036036020811015610e5257600080fd5b50356001600160a01b0316611bc4565b6104a160048036036060811015610e7857600080fd5b506001600160a01b038135169060208101359060400135611ce4565b60006001600160a01b038316610edb5760405162461bcd60e51b815260040180806020018281038252602b815260200180612f1b602b913960400191505060405180910390fd5b5060008181526002602090815260408083206001600160a01b03861684529091529020545b92915050565b6001600160e01b03191660009081526001602052604090205460ff1690565b60048054604080516020601f6002600019610100600188161502019095169490940493840181900481028201810190925282815260609390929091830182828015610fb15780601f10610f8657610100808354040283529160200191610fb1565b820191906000526020600020905b815481529060010190602001808311610f9457829003601f168201915b50505050509050919050565b610fee7f9f2df0fed2c77648de5860a4cc508cd0818c85b8b8a1ab4ceeef8d981c8956a6610fe9611d6d565b611807565b6110295760405162461bcd60e51b815260040180806020018281038252603881526020018061308f6038913960400191505060405180910390fd5b61103584848484611d71565b50505050565b60009081526020819052604090206002015490565b81518351146110905760405162461bcd60e51b81526004018080602001828103825260288152602001806131b76028913960400191505060405180910390fd5b6001600160a01b0384166110d55760405162461bcd60e51b81526004018080602001828103825260258152602001806130156025913960400191505060405180910390fd5b6110dd611d6d565b6001600160a01b0316856001600160a01b03161480611108575061110885611103611d6d565b6119cb565b6111435760405162461bcd60e51b815260040180806020018281038252603281526020018061303a6032913960400191505060405180910390fd5b600061114d611d6d565b905061115d818787878787611fc6565b60005b845181101561126357600085828151811061117757fe5b60200260200101519050600085838151811061118f57fe5b602002602001015190506111fc816040518060600160405280602a81526020016130c7602a91396002600086815260200190815260200160002060008d6001600160a01b03166001600160a01b0316815260200190815260200160002054611fd49092919063ffffffff16565b60008381526002602090815260408083206001600160a01b038e811685529252808320939093558a1681522054611233908261206b565b60009283526002602090815260408085206001600160a01b038c1686529091529092209190915550600101611160565b50846001600160a01b0316866001600160a01b0316826001600160a01b03167f4a39dc06d4c0dbc64b70af90fd698a233a518aa5d07e595d983b8c0526c8f7fb8787604051808060200180602001838103835285818151815260200191508051906020019060200280838360005b838110156112e95781810151838201526020016112d1565b50505050905001838103825284818151815260200191508051906020019060200280838360005b83811015611328578181015183820152602001611310565b5050505090500194505050505060405180910390a461134b8187878787876120c5565b505050505050565b60008281526020819052604090206002015461137190610fe9611d6d565b6113ac5760405162461bcd60e51b815260040180806020018281038252602f815260200180612eec602f913960400191505060405180910390fd5b6113b68282612344565b5050565b6113c2611d6d565b6001600160a01b0316816001600160a01b0316146114115760405162461bcd60e51b815260040180806020018281038252602f815260200180613200602f913960400191505060405180910390fd5b6113b682826123ad565b6114477f65d7a28e3265b37a6474929f336521b332c1681b933f6cb9f3376673440d862a610fe9611d6d565b6114825760405162461bcd60e51b815260040180806020018281038252603b8152602001806130f1603b913960400191505060405180910390fd5b61148a612416565b565b606081518351146114ce5760405162461bcd60e51b815260040180806020018281038252602981526020018061318e6029913960400191505060405180910390fd5b6060835167ffffffffffffffff811180156114e857600080fd5b50604051908082528060200260200182016040528015611512578160200160208202803683370190505b50905060005b84518110156115705761155185828151811061153057fe5b602002602001015185838151811061154457fe5b6020026020010151610e94565b82828151811061155d57fe5b6020908102919091010152600101611518565b509392505050565b60055460ff165b90565b61158a611d6d565b6001600160a01b0316836001600160a01b031614806115b057506115b083611103611d6d565b6115eb5760405162461bcd60e51b8152600401808060200182810382526029815260200180612fbc6029913960400191505060405180910390fd5b6115f68383836124b6565b505050565b611603611d6d565b6001600160a01b03166116146117d4565b6001600160a01b03161461166f576040805162461bcd60e51b815260206004820181905260248201527f4f776e61626c653a2063616c6c6572206973206e6f7420746865206f776e6572604482015290519081900360640190fd5b60055460405160009161010090046001600160a01b0316907f8be0079c531659141344cd1fd0a4f28419497f9722a3daafe3b4186f6b6457e0908390a360058054610100600160a81b0319169055565b6116eb7f9f2df0fed2c77648de5860a4cc508cd0818c85b8b8a1ab4ceeef8d981c8956a6610fe9611d6d565b6117265760405162461bcd60e51b815260040180806020018281038252603881526020018061308f6038913960400191505060405180910390fd5b61103584848484612724565b61173c6006612825565b6000611748600661282e565b90506115f683828460405180602001604052806000815250612724565b6117917f65d7a28e3265b37a6474929f336521b332c1681b933f6cb9f3376673440d862a610fe9611d6d565b6117cc5760405162461bcd60e51b815260040180806020018281038252603981526020018061312c6039913960400191505060405180910390fd5b61148a612832565b60055461010090046001600160a01b031690565b600082815260208190526040812061180090836128b5565b9392505050565b600082815260208190526040812061180090836128c1565b600081565b816001600160a01b0316611836611d6d565b6001600160a01b0316141561187c5760405162461bcd60e51b81526004018080602001828103825260298152602001806131656029913960400191505060405180910390fd5b8060036000611889611d6d565b6001600160a01b03908116825260208083019390935260409182016000908120918716808252919093529120805460ff1916921515929092179091556118cd611d6d565b6001600160a01b03167f17307eab39ab6107e8899845ad3d59bd9653f200f220920489ca2b5937696c318360405180821515815260200191505060405180910390a35050565b6000818152602081905260408120610f00906128d6565b7f9f2df0fed2c77648de5860a4cc508cd0818c85b8b8a1ab4ceeef8d981c8956a681565b60008281526020819052604090206002015461196c90610fe9611d6d565b6114115760405162461bcd60e51b8152600401808060200182810382526030815260200180612fe56030913960400191505060405180910390fd5b7f65d7a28e3265b37a6474929f336521b332c1681b933f6cb9f3376673440d862a81565b6001600160a01b03918216600090815260036020908152604080832093909416825291909152205460ff1690565b6001600160a01b038416611a3e5760405162461bcd60e51b81526004018080602001828103825260258152602001806130156025913960400191505060405180910390fd5b611a46611d6d565b6001600160a01b0316856001600160a01b03161480611a6c5750611a6c85611103611d6d565b611aa75760405162461bcd60e51b8152600401808060200182810382526029815260200180612fbc6029913960400191505060405180910390fd5b6000611ab1611d6d565b9050611ad1818787611ac2886128e1565b611acb886128e1565b87611fc6565b611b18836040518060600160405280602a81526020016130c7602a913960008781526002602090815260408083206001600160a01b038d1684529091529020549190611fd4565b60008581526002602090815260408083206001600160a01b038b81168552925280832093909355871681522054611b4f908461206b565b60008581526002602090815260408083206001600160a01b03808b168086529184529382902094909455805188815291820187905280518a8416938616927fc3d58168c5ae7397731d063d5bbf3d657854427343f4c083240f7aacaa2d0f6292908290030190a461134b818787878787612925565b611bcc611d6d565b6001600160a01b0316611bdd6117d4565b6001600160a01b031614611c38576040805162461bcd60e51b815260206004820181905260248201527f4f776e61626c653a2063616c6c6572206973206e6f7420746865206f776e6572604482015290519081900360640190fd5b6001600160a01b038116611c7d5760405162461bcd60e51b8152600401808060200182810382526026815260200180612f466026913960400191505060405180910390fd5b6005546040516001600160a01b0380841692610100900416907f8be0079c531659141344cd1fd0a4f28419497f9722a3daafe3b4186f6b6457e090600090a3600580546001600160a01b0390921661010002610100600160a81b0319909216919091179055565b611cec611d6d565b6001600160a01b0316836001600160a01b03161480611d125750611d1283611103611d6d565b611d4d5760405162461bcd60e51b8152600401808060200182810382526029815260200180612fbc6029913960400191505060405180910390fd5b6115f6838383612a96565b6000611800836001600160a01b038416612bc9565b3390565b6001600160a01b038416611db65760405162461bcd60e51b81526004018080602001828103825260218152602001806131df6021913960400191505060405180910390fd5b8151835114611df65760405162461bcd60e51b81526004018080602001828103825260288152602001806131b76028913960400191505060405180910390fd5b6000611e00611d6d565b9050611e1181600087878787611fc6565b60005b8451811015611ed557611e8c60026000878481518110611e3057fe5b602002602001015181526020019081526020016000206000886001600160a01b03166001600160a01b0316815260200190815260200160002054858381518110611e7657fe5b602002602001015161206b90919063ffffffff16565b60026000878481518110611e9c57fe5b602090810291909101810151825281810192909252604090810160009081206001600160a01b038b168252909252902055600101611e14565b50846001600160a01b031660006001600160a01b0316826001600160a01b03167f4a39dc06d4c0dbc64b70af90fd698a233a518aa5d07e595d983b8c0526c8f7fb8787604051808060200180602001838103835285818151815260200191508051906020019060200280838360005b83811015611f5c578181015183820152602001611f44565b50505050905001838103825284818151815260200191508051906020019060200280838360005b83811015611f9b578181015183820152602001611f83565b5050505090500194505050505060405180910390a4611fbf816000878787876120c5565b5050505050565b61134b868686868686612c13565b600081848411156120635760405162461bcd60e51b81526004018080602001828103825283818151815260200191508051906020019080838360005b83811015612028578181015183820152602001612010565b50505050905090810190601f1680156120555780820380516001836020036101000a031916815260200191505b509250505060405180910390fd5b505050900390565b600082820183811015611800576040805162461bcd60e51b815260206004820152601b60248201527f536166654d6174683a206164646974696f6e206f766572666c6f770000000000604482015290519081900360640190fd5b6120d7846001600160a01b0316612c65565b1561134b57836001600160a01b031663bc197c8187878686866040518663ffffffff1660e01b815260040180866001600160a01b03168152602001856001600160a01b03168152602001806020018060200180602001848103845287818151815260200191508051906020019060200280838360005b8381101561216557818101518382015260200161214d565b50505050905001848103835286818151815260200191508051906020019060200280838360005b838110156121a457818101518382015260200161218c565b50505050905001848103825285818151815260200191508051906020019080838360005b838110156121e05781810151838201526020016121c8565b50505050905090810190601f16801561220d5780820380516001836020036101000a031916815260200191505b5098505050505050505050602060405180830381600087803b15801561223257600080fd5b505af192505050801561225757506040513d602081101561225257600080fd5b505160015b6122ec57612263612dc8565b8061226e57506122b5565b60405162461bcd60e51b8152602060048201818152835160248401528351849391928392604401919085019080838360008315612028578181015183820152602001612010565b60405162461bcd60e51b8152600401808060200182810382526034815260200180612e6e6034913960400191505060405180910390fd5b6001600160e01b0319811663bc197c8160e01b1461233b5760405162461bcd60e51b8152600401808060200182810382526028815260200180612ec46028913960400191505060405180910390fd5b50505050505050565b600082815260208190526040902061235c9082611d58565b156113b657612369611d6d565b6001600160a01b0316816001600160a01b0316837f2f8788117e7eff1d82e926ec794901d17c78024a50270940304540a733656f0d60405160405180910390a45050565b60008281526020819052604090206123c59082612c6b565b156113b6576123d2611d6d565b6001600160a01b0316816001600160a01b0316837ff6391f5c32d9c69d2a47ea670b442974b53935d1edc7fd64eb21e047a839171b60405160405180910390a45050565b61241e611578565b612466576040805162461bcd60e51b815260206004820152601460248201527314185d5cd8589b194e881b9bdd081c185d5cd95960621b604482015290519081900360640190fd5b6005805460ff191690557f5db9ee0a495bf2e6ff9c91a7834c1ba4fdd244a5e8aa4e537bd38aeae4b073aa612499611d6d565b604080516001600160a01b039092168252519081900360200190a1565b6001600160a01b0383166124fb5760405162461bcd60e51b815260040180806020018281038252602381526020018061306c6023913960400191505060405180910390fd5b805182511461253b5760405162461bcd60e51b81526004018080602001828103825260288152602001806131b76028913960400191505060405180910390fd5b6000612545611d6d565b905061256581856000868660405180602001604052806000815250611fc6565b60005b8351811015612643576125fa83828151811061258057fe5b6020026020010151604051806060016040528060248152602001612f6c60249139600260008886815181106125b157fe5b602002602001015181526020019081526020016000206000896001600160a01b03166001600160a01b0316815260200190815260200160002054611fd49092919063ffffffff16565b6002600086848151811061260a57fe5b602090810291909101810151825281810192909252604090810160009081206001600160a01b038a168252909252902055600101612568565b5060006001600160a01b0316846001600160a01b0316826001600160a01b03167f4a39dc06d4c0dbc64b70af90fd698a233a518aa5d07e595d983b8c0526c8f7fb8686604051808060200180602001838103835285818151815260200191508051906020019060200280838360005b838110156126ca5781810151838201526020016126b2565b50505050905001838103825284818151815260200191508051906020019060200280838360005b838110156127095781810151838201526020016126f1565b5050505090500194505050505060405180910390a450505050565b6001600160a01b0384166127695760405162461bcd60e51b81526004018080602001828103825260218152602001806131df6021913960400191505060405180910390fd5b6000612773611d6d565b905061278581600087611ac2886128e1565b60008481526002602090815260408083206001600160a01b03891684529091529020546127b2908461206b565b60008581526002602090815260408083206001600160a01b03808b16808652918452828520959095558151898152928301889052815190948616927fc3d58168c5ae7397731d063d5bbf3d657854427343f4c083240f7aacaa2d0f6292908290030190a4611fbf81600087878787612925565b80546001019055565b5490565b61283a611578565b1561287f576040805162461bcd60e51b815260206004820152601060248201526f14185d5cd8589b194e881c185d5cd95960821b604482015290519081900360640190fd5b6005805460ff191660011790557f62e78cea01bee320cd4e420270b5ea74000d11b0c9f74754ebdbfc544b05a258612499611d6d565b60006118008383612c80565b6000611800836001600160a01b038416612ce4565b6000610f008261282e565b60408051600180825281830190925260609182919060208083019080368337019050509050828160008151811061291457fe5b602090810291909101015292915050565b612937846001600160a01b0316612c65565b1561134b57836001600160a01b031663f23a6e6187878686866040518663ffffffff1660e01b815260040180866001600160a01b03168152602001856001600160a01b0316815260200184815260200183815260200180602001828103825283818151815260200191508051906020019080838360005b838110156129c65781810151838201526020016129ae565b50505050905090810190601f1680156129f35780820380516001836020036101000a031916815260200191505b509650505050505050602060405180830381600087803b158015612a1657600080fd5b505af1925050508015612a3b57506040513d6020811015612a3657600080fd5b505160015b612a4757612263612dc8565b6001600160e01b0319811663f23a6e6160e01b1461233b5760405162461bcd60e51b8152600401808060200182810382526028815260200180612ec46028913960400191505060405180910390fd5b6001600160a01b038316612adb5760405162461bcd60e51b815260040180806020018281038252602381526020018061306c6023913960400191505060405180910390fd5b6000612ae5611d6d565b9050612b1581856000612af7876128e1565b612b00876128e1565b60405180602001604052806000815250611fc6565b612b5c82604051806060016040528060248152602001612f6c6024913960008681526002602090815260408083206001600160a01b038b1684529091529020549190611fd4565b60008481526002602090815260408083206001600160a01b03808a16808652918452828520959095558151888152928301879052815193949093908616927fc3d58168c5ae7397731d063d5bbf3d657854427343f4c083240f7aacaa2d0f6292908290030190a450505050565b6000612bd58383612ce4565b612c0b57508154600181810184556000848152602080822090930184905584548482528286019093526040902091909155610f00565b506000610f00565b612c2186868686868661134b565b612c29611578565b1561134b5760405162461bcd60e51b815260040180806020018281038252602c815260200180612f90602c913960400191505060405180910390fd5b3b151590565b6000611800836001600160a01b038416612cfc565b81546000908210612cc25760405162461bcd60e51b8152600401808060200182810382526022815260200180612ea26022913960400191505060405180910390fd5b826000018281548110612cd157fe5b9060005260206000200154905092915050565b60009081526001919091016020526040902054151590565b60008181526001830160205260408120548015612db85783546000198083019190810190600090879083908110612d2f57fe5b9060005260206000200154905080876000018481548110612d4c57fe5b600091825260208083209091019290925582815260018981019092526040902090840190558654879080612d7c57fe5b60019003818190600052602060002001600090559055866001016000878152602001908152602001600020600090556001945050505050610f00565b6000915050610f00565b60e01c90565b600060443d1015612dd85761157f565b600481823e6308c379a0612dec8251612dc2565b14612df65761157f565b6040513d600319016004823e80513d67ffffffffffffffff8160248401118184111715612e26575050505061157f565b82840192508251915080821115612e40575050505061157f565b503d83016020828401011115612e585750505061157f565b601f01601f191681016020016040529150509056fe455243313135353a207472616e7366657220746f206e6f6e2045524331313535526563656976657220696d706c656d656e746572456e756d657261626c655365743a20696e646578206f7574206f6620626f756e6473455243313135353a204552433131353552656365697665722072656a656374656420746f6b656e73416363657373436f6e74726f6c3a2073656e646572206d75737420626520616e2061646d696e20746f206772616e74455243313135353a2062616c616e636520717565727920666f7220746865207a65726f20616464726573734f776e61626c653a206e6577206f776e657220697320746865207a65726f2061646472657373455243313135353a206275726e20616d6f756e7420657863656564732062616c616e6365455243313135355061757361626c653a20746f6b656e207472616e73666572207768696c6520706175736564455243313135353a2063616c6c6572206973206e6f74206f776e6572206e6f7220617070726f766564416363657373436f6e74726f6c3a2073656e646572206d75737420626520616e2061646d696e20746f207265766f6b65455243313135353a207472616e7366657220746f20746865207a65726f2061646472657373455243313135353a207472616e736665722063616c6c6572206973206e6f74206f776e6572206e6f7220617070726f766564455243313135353a206275726e2066726f6d20746865207a65726f2061646472657373455243313135355072657365744d696e7465725061757365723a206d7573742068617665206d696e74657220726f6c6520746f206d696e74455243313135353a20696e73756666696369656e742062616c616e636520666f72207472616e73666572455243313135355072657365744d696e7465725061757365723a206d75737420686176652070617573657220726f6c6520746f20756e7061757365455243313135355072657365744d696e7465725061757365723a206d75737420686176652070617573657220726f6c6520746f207061757365455243313135353a2073657474696e6720617070726f76616c2073746174757320666f722073656c66455243313135353a206163636f756e747320616e6420696473206c656e677468206d69736d61746368455243313135353a2069647320616e6420616d6f756e7473206c656e677468206d69736d61746368455243313135353a206d696e7420746f20746865207a65726f2061646472657373416363657373436f6e74726f6c3a2063616e206f6e6c792072656e6f756e636520726f6c657320666f722073656c66a2646970667358221220393b1dc4675a61d9c34a21286233153cd33c44f6a3c572f4ae33add2cded5ea564736f6c634300060c003368747470733a2f2f63726561746f722e726577617264732f6170692f6974656d2f7b69647d2e6a736f6e",
  "linkReferences": {},
  "deployedLinkReferences": {}
}